:020000040800F2
:10000000100C00202D0200083502000837020008FD
:10001000390200083B0200083D0200080000000011
:10002000000000000000000000000000FD010008CA
:100030004102000800000000AD100008251500086E
:10004000470200084702000847020008470200086C
:10005000470200084702000847020008470200085C
:10006000470200084702000847020008470200084C
:10007000470200084702000847020008470200083C
:10008000470200084702000847020008000000007D
:10009000000000000000000000000000470200080F
:1000A000470200084702000847020008470200080C
:1000B00047020008470200088116000847020008AE
:1000C00047020008470200084702000847020008EC
:1000D00047020008A116000847020008470200086E
:1000E000470200084702000847020008000000001D
:1000F0000000000000000000000000000000000000
:1001000000000000000000000000000000000000EF
:10011000000000000000000047020008470200083D
:1001200000F002F800F05AF80AA090E8000C8244AF
:100130008344AAF10107DA4501D100F04FF8AFF28C
:10014000090EBAE80F0013F0010F18BFFB1A43F0B5
:1001500001031847C4380000E43800000A444FF097
:10016000000C10F8013B13F0070408BF10F8014B16
:100170001D1108BF10F8015B641E05D010F8016B5B
:10018000641E01F8016BF9D113F0080F1EBF10F8BF
:10019000014BAD1C0C1B09D16D1E58BF01F801CBE2
:1001A000FAD505E014F8016B01F8016B6D1EF9D565
:1001B0009142D6D37047000000230024002500267A
:1001C000103A28BF78C1FBD8520728BF30C148BFBA
:1001D0000B6070471FB51FBD10B510BD00F0D2F801
:1001E0001146FFF7F7FF02F089F900F0F0F803B4C9
:1001F000FFF7F2FF03BC00F0F1F800001EF0040F5F
:100200000CBFEFF30880EFF3098090E80F1000B502
:10021000E0475DF804EB1EF0020F0CBFEFF3088C13
:10022000EFF3098C8CE80F00704700000948804705
:1002300009480047FEE7FEE7FEE7FEE7FEE7FEE7C8
:10024000FEE7FEE7FEE7FEE704480549034A054BE3
:10025000704700004D15000821010008100400201F
:10026000100C002010040020032A40F2308010F00F
:10027000030C00F0158011F8013BBCF1020F624441
:1002800098BF11F801CB00F8013B38BF11F8013BD2
:10029000A2F1040298BF00F801CB38BF00F8013B7F
:1002A00011F0030300F03380083AC0F0088051F8E1
:1002B000043B083A51F804CBA0E80810F5E7121DFA
:1002C0005CBF51F8043B40F8043BAFF30080D20719
:1002D00024BF11F8013B11F801CB48BF11F8012BE5
:1002E00024BF00F8013B00F801CB48BF00F8012B08
:1002F000704770477047704710B500F03BF80068D2
:1003000010BD10B5044600F035F8046010BD10B5FE
:10031000203AC0F00B80B1E81850203AA0E81850FD
:10032000B1E81850A0E81850BFF4F5AF5FEA027CBE
:1003300024BFB1E81850A0E8185044BF18C918C02D
:10034000BDE810405FEA827C24BF51F8043B40F8CE
:10035000043B08BF7047D20728BF31F8023B48BFB3
:1003600011F8012B28BF20F8023B48BF00F8012BF1
:100370007047000000487047B003002000487047F5
:10038000B00300207546FFF7F9FFAE460500694649
:10039000534620F00700854618B020B5FFF754FFFC
:1003A000BDE820404FF000064FF000074FF0000876
:1003B0004FF0000B21F00701AC46ACE8C009ACE8F7
:1003C000C009ACE8C009ACE8C0098D4670470446D6
:1003D000AFF300802046FFF70AFF00000149182014
:1003E000ABBEFEE72600020070470000284910B5AA
:1003F00008684FF6FF021040264A40F4E0601043C0
:100400000860FF216FF0010000F04EFD00F0B4FE27
:10041000224921488A6942F400628A614FF41842F5
:1004200002811F4A136823F4702343F400231360EE
:10043000028942F480420281028842F00102028075
:10044000CA69880442F00102CA6100220280028562
:1004500044F61F6282850122828202806023038328
:100460000284886940F0040088610D48001F01681B
:1004700021F00F0141F00B01016001F0CBF801F018
:100480008FF801F017FBBDE8104000F0B9BC000088
:100490000CED00E00000FA05002C014000100240C5
:1004A0000408014070B50D46094901EB40014C5D5F
:1004B00000F0D0FE2946204601F0CCF90546062082
:1004C00000F0C8FEAC4201D1012070BD002070BD1B
:1004D0009E3800080146014800F09EB8A838000880
:1004E0000146014800F098B8B438000801460148B8
:1004F00000F092B8C03800080146014800F08CB8FE
:10050000CC3800082DE9F0410F46050025D02868B9
:100510008047002822D0A9680120884700281DD0E4
:1005200068688047002819D0CC21284600F07AFD61
:10053000BE21284600F076FD0026DFF83C803446D8
:10054000FF21284600F06EFD38557040641C18F8F5
:100550000060E4B2092CF3D316B10020BDE8F081AD
:1005600068688047CC21284600F05CFD442128467D
:1005700000F058FD0120F1E7D838000870B50D46AD
:1005800004002FD02068804700282AD0A1680120CD
:100590008847002825D060688047002821D0CC21DA
:1005A000204600F03FFD4E21204600F03BFD7F211C
:1005B000204600F037FD0021204600F033FD45F0D5
:1005C0001F01204600F02EFD60688047002808D0FB
:1005D000CC21204600F026FD4821204600F022FDD7
:1005E000012070BD002070BD10B570210948FFF7D3
:1005F000C5FF084870210C30FFF7C0FF0548702187
:100600001830FFF7BBFF03487021BDE810402430CD
:10061000FFF7B4BFA83800083EB50C466946FFF79F
:1006200071FF002807D09DF800009DF8011000EB35
:100630000120208001203EBD0A498A6942F004025F
:100640008A6108B1022001E04FF4003006490860D9
:1006500005481038016821F0F00141F030010160D7
:100660007047000000100240100801400A498A69E2
:1006700042F004028A6108B1042001E04FF48020B6
:100680000649086005481038016821F4706141F49A
:1006900040710160704700000010024010080140E6
:1006A000F0B51548DFF854C0002601784FF6FF7703
:1006B00035463CF811303A460624491CC9B2184662
:1006C000072900D300213CF81130181A80B2A84243
:1006D00000D90546904200D202463044641E86B2DC
:1006E00014F0FF04E9D1701B801AC0F38D00C0EB39
:1006F000001007EA8000F0BDE80000205003002051
:1007000070B53348017800295FD00025057000F0EE
:1007100089F800F0B1F82F4CD4E9011002F0ACFEDA
:10072000267801212C4C4FF07E52012E47D02B4BC6
:10073000022E39D0032E10D06570A57000F04CFA4F
:10074000E07880B3A07808B100F060F96078002804
:100750003CD0BDE8704000F0ADB8E6782EB1E56061
:10076000904218DB62789AB113E06570A57020F0B2
:100770000043934206DBE068401CE060B0F5167F62
:1007800004D200E0E5601648834210DBE170D9E74F
:10079000E5706170A5709842D2D3A07800B9E57079
:1007A0006570A170CCE702E0984204D3E570BDE823
:1007B000704000F011BAE1706170A570C2E790421C
:1007C000F4DAE170A1706570BCE700BF70BD000095
:1007D0000000002040030020E8000020000080BF4F
:1007E0000000A04001490887704700000040014018
:1007F0000A498A6942F004028A6108B1082001E0CE
:100800004FF400200649086005481038016821F4BB
:10081000704141F4405101607047000000100240F7
:10082000100801400E4810B501880F4C0D4A207881
:1008300022F81010401CC0B22070072801D30020FD
:100840002070FFF72DFFE080208918B12089401E1D
:10085000208110BDBDE810400020FFF7C9BF000097
:10086000242C014050030020E80000200149888624
:1008700070470000004001400B4810B500881E285A
:1008800002D3002000F05EF9084C608902F014FDEC
:100890006FF0030102F0C5FE217B01F069FE01F05B
:1008A00043FD0349886010BD2A010020F0020020AA
:1008B000400300202DE9F05F4A4CDFF81C91DFF87F
:1008C0001CB1DFF81C81607800286FD0FFF7D4FFDF
:1008D0004548E26A816840680F4606469246A26231
:1008E00002F0CAFD0546E0622946484602F0F8FCDF
:1008F000814620632946584602F0F2FC616B02F003
:1009000079FB3A496063884202D83949884200DD60
:1009100061633146384602F0AFFD4FF40007B8423C
:10092000514628461FDA02F0A7FD20F0004002F0F1
:1009300035FB02460B4600202E4902F0EDF84FF041
:1009400020422D4B02F0E8F805460E462B49A06BDD
:1009500002F0C6FC02F022FB2A46334601F0ECFF0F
:1009600001F0B8FF0FE002F087FD414602F0B8FC4D
:10097000234902F0B5FC05462249A06B02F0B0FC09
:10098000294602F037FBA0634846616B02F032FB58
:10099000A16B02F02FFBE063B84202DB0020E063B2
:1009A0000DE01949884202D9E16303E011E010F13A
:1009B000FF4F04D33C2020810120FFF719FFE0887E
:1009C000642801D2002000E0E06BBDE8F05F00F099
:1009D000B9B8BDE8F09F00000000483EE4388E3A08
:1009E00000803B41E8000020400300209A9999BE16
:1009F0009A99993E007027409999B93F6666663F7B
:100A0000CDCC4C3ECDCC4C3F000080BF2DE9F05FFB
:100A1000424CDFF8FC90DFF8FCB0DFF8FC80A078F7
:100A2000002873D0FFF728FF3D486269816840685D
:100A30000F4606469246226102F01EFD05466061A1
:100A40002946484602F04CFC8146A061294658469A
:100A500002F046FCE16902F0CDFA3249E0618842D9
:100A600002D83149884200DDE1613146384602F062
:100A700003FD2E4F5146B84228461FD202F0FCFC1F
:100A800020F0004002F08AFA02460B460020284976
:100A900002F042F84FF02042264B02F03DF80546A6
:100AA0000E462549206A02F01BFC02F077FA2A461E
:100AB000334601F041FF01F00DFF0FE002F0DCFCD6
:100AC000414602F00DFC1D4902F00AFC05461C4996
:100AD000206A02F005FC294602F08CFA20624846A2
:100AE000E16902F087FA216A02F084FA6062B84292
:100AF00002D30020606204E04FF07E51884200DDA6
:100B00006162606ABDE8F05F00F01CB8BDE8F09F6C
:100B10000000A03DABAAAA390080BB40E80000203D
:100B2000400300209A9999BE9A99993E00008080CE
:100B3000007017409999B9BF6666663FCDCC4C3EB0
:100B4000CDCC4C3F70B5214C214602F0C9FB21466B
:100B500002F050FA02F078FB1D4980B24FF47A7629
:100B60001C4C888140F2DE35B04214D2C0F57A7058
:100B7000A0800020FFF77AFEA088A84201D9304665
:100B800005E0A0880A2801D2002000E0A088BDE886
:100B90007040FFF727BEB04214D9A0F57A70A0804C
:100BA0000020FFF71FFEA088A84201D9304605E0CB
:100BB000A0880A2801D2002000E0A088BDE870408B
:100BC000FFF754BE0020FFF751FEDDE700007A4436
:100BD00040030020E800002010B5FFF74DFEBDE8FF
:100BE00010400020FFF7AEBF38B56846FFF778FC2D
:100BF000184C002110B3184DA1801848BDF90020F1
:100C00002A82B0F91000A0F1F003B3F5207F0BD8D1
:100C1000134B5B7813F0010F06D0824201DA0120FA
:100C200000E00020607000E06170607800F01CF867
:100C3000607808B14FF47A70688238BD094840780E
:100C4000C007FAD0A0881E2802D2401CA08038BD60
:100C5000617038BD28010020A0020020F0020020B1
:100C6000E3000020DE00002009498A6942F01002FA
:100C70008A6110B14FF4005101E04FF00051054876
:100C80000161416821F4700141F4401141607047F5
:100C9000001002400010014070B5234D0024204692
:100CA00000F0D8FAFF2000F02DFFFF2000F02AFF0F
:100CB000FF2000F027FFFF2000F024FFFF2000F0BE
:100CC00021FFFF2000F01EFFFF2000F01BFFFF2090
:100CD00000F018FF05EB4400012140784030C0B21D
:100CE00000F0B8FD062000F0B5FA641CE4B2052C53
:100CF000D5D3DC2000F036FF0024204600F0AAFA0D
:100D000015F8140000214030C0B200F0A3FD062009
:100D100000F0A0FA641CE4B2052CEED3BDE87040EC
:100D2000DC2000F01FBF00009E380008FEB5FFF772
:100D30005BFC40F2EE2000F015FF6846FFF7CAFBAF
:100D40006846FFF7CDFB224D18B1687840F00100EE
:100D500068706846FFF7CAFB6846FFF7CDFB18B11D
:100D6000287840F020002870FFF796FF002401AE9D
:100D700000212046FFF796FB3055641CE4B2052C99
:100D8000F6D300200122315C59B100EB80010F3114
:100D900005EBD10301F007011C7802FA01F10C43C5
:100DA0001C70401CC0B20528EDD3687841070DD5F2
:100DB000A978C9060AD4E9788A0707D4490605D470
:100DC0002979090702D440F004006870FEBD0000D4
:100DD000DE0000207047000001490020C860704715
:100DE0000000002008B50221009101464FF416537F
:100DF0000122002001F0BAF8BDE8084000F0D8BE9A
:100E000070B50B4800250A21C5604068B0FBF1F0C1
:100E1000401EB0F1807F09D24FF0E02460610F21C5
:100E2000601700F041F8A5610720206170BD000047
:100E3000000000200348C068322801D30120704719
:100E4000002070470000002044F6206148434FF422
:100E5000D841B0FBF1F04FF0804188867047000028
:100E600009498A6942F010028A6110B14FF4804149
:100E700001E04FF0804105480161416821F0706157
:100E800041F0407141607047001002400010014085
:100E900000F01F020121914040094FF0E02202EBD7
:100EA0008000C0F8001170470907090E002803DA16
:100EB00000F00F00024A00E0024A8154704700002F
:100EC00014ED00E000E400E00C4800B5816941F059
:100ED000080181610A48016821F4700141F4E001D0
:100EE0000160084A01201060052000F049FE52F818
:100EF000800C002800D0012000BD0000001002403E
:100F0000040C0140B4812142DFF804C000DF7047C7
:100F1000B5180008DFF804C000DF7047F1180008BA
:100F20000B4800B5816941F00401816109480168FD
:100F300021F00F01C91D0160074A01201060052042
:100F400000F01EFE52F8800C002800D0012000BDE9
:100F50000010024004080140A0012142DFF804C053
:100F600000DF704735190008DFF804C000DF704764
:100F7000711900080C4800B5816941F004018161D4
:100F80000A48016821F4704141F4E0410160084AD7
:100F900001201060052000F0F3FD52F8800C0028BD
:100FA00000D0012000BD00000010024004080140F4
:100FB000AC012142DFF804C000DF7047B51900081A
:100FC000DFF804C000DF7047F11900080C4800B5D5
:100FD000816941F0040181610A48016821F0704192
:100FE00041F0E0410160084A01201060052000F056
:100FF000C7FD52F8800C002800D0012000BD000081
:101000000010024004080140BC012142DFF804C086
:1010100000DF7047351A0008DFF804C000DF7047B2
:10102000711A00082DE9F04108250C460646802774
:10103000B16804F00100884710B147EA540400E0A9
:1010400064086D1EF4D12046BDE8F0814FF47A713A
:1010500048434FF4D841B0FBF1F001490880704794
:101060003C0400404FF47A7148434FF4D841B0FB40
:10107000F1F0014908807047400400404FF47A7154
:1010800048434FF4D841B0FBF1F001490880704764
:10109000340400404FF47A7148434FF4D841B0FB18
:1010A000F1F00149088070473804004000F09EBF0D
:1010B00009498A6942F010028A6110B14FF4004177
:1010C00001E04FF0004105480161416821F07041A5
:1010D00041F0405141607047001002400010014053
:1010E0002DE9F04700270C468146142501F108063A
:1010F000484600F0AFF8F0B200F004FD002000F028
:1011000001FD8046062000F0A5F85FEA086014D4CF
:10111000484600F09FF83834E0B200F0F3FC0020BD
:1011200000F0F0FC0446002000F0ECFC00EB042092
:1011300087B2062000F08EF806E00A2000F012FDCB
:101140006D1E15F0FF05D3D13846BDE8F0870000CD
:1011500010B50022074B114603EBC10434F81040D0
:10116000491C224489B292B20A29F5D30A20B2FB63
:10117000F0F010BD300100202E4800B5416941F06B
:10118000010141612C4900238B6043F2A0528A6027
:101190002A4A0A612A4A4A612822CA608A6842F0B9
:1011A00001028A60816941F00401816125490A6870
:1011B00022F47F020A60816941F400718161416813
:1011C00021F4404141F4004141601C4980154839F7
:1011D00008600A1D1C48106018491C483C3908600A
:1011E000091F4FF4100008601449194818390860A5
:1011F000081F036011494FF4401020390860012096
:1012000000F0BEFC106840F001001060106840F073
:101210000800106010680007FCD4106840F004005B
:10122000106010684007FCD4106840F4A000106003
:1012300000BD000000100240000002404C240140AC
:1012400030010020000801400301800007F0030086
:101250001192020011498A6942F008028A6110491C
:101260000A68104B6FF313021A430A600C490C31E1
:1012700005280FD2DFE800F0030507090B000A4834
:1012800006E00A4804E00A4802E00A4800E00A488A
:10129000086070474FF4F850FAE700000010024071
:1012A000040C014033330300001E0001000F001046
:1012B00000170008001D0002001B00040CB50021EF
:1012C0001F4801910091026842F4803202604FF49D
:1012D000A063026802F400320092019A521C01924B
:1012E000009A12B9019A9A42F3D10268920324D566
:1012F000012100914168416041684160416841605D
:10130000416821F47C114160416841F498114160C9
:10131000016841F08071016001688901FCD5416874
:1013200021F003014160416841F0020141604168E0
:10133000C1F381010229FAD10CBD00910CBD00005E
:10134000001002402DE9F041FFF774FD0546FFF75C
:10135000D7F93E4C6078A17800F0040001F010014C
:101360000843E17801F00202104301F04001084314
:10137000217901F00801084300D00120FFF798FE11
:101380006078334EC0F38000A84370784FEA407015
:1013900003D0002806DA012002E0002802DA00204B
:1013A000FFF786FE60782B4F4FEAD010A8430CD091
:1013B0007078000609D50120FFF758F90120FFF7E2
:1013C0004FFDF88BFFF740FD08E00020FFF73CFDE4
:1013D0000020FFF745FD0020FFF748F9A078C0F393
:1013E0000010A84304D0B078C00601D5388D00E0C5
:1013F0000020FFF72BFEE078C0F34000A84304D0A4
:10140000F078800701D5788E00E00020FFF72AFEF3
:10141000E078C0F38010A84304D0F078400601D5EE
:10142000B88F00E00020FFF729FE2079C0F3C0004C
:10143000A84305D03079000702D5B7F8460000E090
:101440000020BDE8F041FFF725BE0000E3000020CA
:10145000DE000020F00200201CB56846FFF73AF8D5
:10146000184C10B1BDF80000A0806846FFF73EF8A8
:1014700040B1BDF800006084A085E086A4F840007B
:10148000A4F84A0001A8FFF737F80F4958B1002027
:101490004880BDF80400608100F040FFA08100F0AA
:1014A00037FFE08108E009480078800604D54888C5
:1014B0001E2801D2401C4880FFF796FBFFF720F959
:1014C0001CBD0000A002002028010020DE0000203A
:1014D00010B500F041FF042102F0A3F801F05EFD19
:1014E00001F044F801F0D8FA0A49C880FFF708F97A
:1014F00000F02AFF084A0949904201DD01220A70E2
:10150000074A904201DA002008700878BDE81040D0
:10151000FFF792B8A002002000002242280100201C
:1015200000001E420848C168491C00D0C1608168A3
:101530000A22491CB1FBF2F3816002FB131100295E
:1015400001D101210170704700000020104810B542
:10155000016841F00101016041680E4A114041609B
:1015600001680D4A11400160016821F48021016089
:10157000416821F4FE0141604FF41F0181600021A8
:10158000C162FFF79BFE05494FF00060086010BD87
:10159000001002400000FFF8FFFFF6FE08ED00E03B
:1015A000194918488A6942F480328A61002202800F
:1015B00045F6BF52028540F2E732828501228282DF
:1015C000028046F260020283112202848A6942F09C
:1015D00001028A610D4AD36943F00103D3618A692C
:1015E00042F008028A610A490A6822F07F4242F00A
:1015F0003B420A60B0F8441041F40041A0F84410A6
:10160000704700000040014000100240000001400F
:10161000040C014017491648CA6942F00202CA6127
:1016200000220280028540F2E73282850122828216
:10163000028046F260020283828343F233320284E4
:10164000886940F0040088610B48026822F07F42FC
:1016500042F03B420260886940F008008861074818
:10166000016821F0FF0141F0BB01016070470000FB
:10167000000400400010024000080140000C01403E
:1016800005480188C90706D0018821F001010180C1
:1016900002480068004770471008004048000020DA
:1016A00070B5114C2088114D800605D5288880061C
:1016B00002D50F48006880472088000605D5288895
:1016C000000602D50B4800688047208840060AD5EE
:1016D0002888400607D5208820F040002080BDE8FB
:1016E0007040FFF777BB70BD0C38014000380140F7
:1016F0004000002044000020F0B587B000242746B9
:1017000005AE6D46E0B20021FEF7CCFE305545F83F
:101710002470641CA4B2052CF4D3FFF79DFE0027AF
:10172000FFF710FE0024305D40B1E0B20021FFF76A
:10173000D7FC55F82410084445F82400641CA4B2D2
:10174000052CF0D37F1CBFB2042FE9D3094A002037
:10175000315C41B155F8201000EB8003B1FBF7F18B
:1017600002EB4303D983401C80B20528F0D307B0B5
:10177000F0BD0000A00200202DE9FC4100246F46CE
:10178000E0B20121FEF78EFE3855641CA4B2052C90
:10179000F6D3FFF79DFE0026FFF7D4FD0025785D08
:1017A000D8B11348012100EB051460682060A068DF
:1017B0006060E068A060E8B2FFF792FCE060D4E906
:1017C00000121144A268104408440A4A05EB85013E
:1017D00002EB4101C0F38F0008846D1CADB2052DF2
:1017E000DDD3761CB6B2022ED6D3BDE8FC81000054
:1017F00060030020A002002070B50446642801D8D0
:101800000F4870BDB4F57A6F01D30E4870BDC4F5B2
:10181000805001F051FD0546204601F04DFD29465E
:1018200001F050FC00F0A0FD074901F0E3FB014688
:10183000064801F047FCBDE87040054901F01CBEB8
:10184000000048C2000034439D62354100405345CA
:101850003393884370B5054601F110000C46C0B2C1
:1018600000F050F9284600F04DF904F12000C0B214
:1018700000F048F90C2000F045F904F14000C0B236
:1018800000F040F9002000F03DF904F13800C0B24A
:1018900000F038F9002000F035F9002000F032F9AE
:1018A0001834E0B200F02EF9BDE87040002000F0DE
:1018B00029B9000000B5012000F062F90B4A0020B0
:1018C00010604FF4F07000F05BF9012010604620CA
:1018D00000F056F952F8800C30B100224FF4CD7070
:1018E00000F04EF9104600BD0122F7E7B481214215
:1018F0000F4A00B503460020C2F8B401062000F0EC
:101900003FF9C2F8B431092000F03AF9D2F83401B5
:1019100008B1012300E000232D2000F031F901205F
:10192000C2F8B4010A2000F02BF9184600BD0000EF
:101930000080214200B5012000F022F90B4A00206E
:1019400010604FF4F07000F01BF901201060462089
:1019500000F016F952F8800C30B100224FF4CD702F
:1019600000F00EF9104600BD0122F7E7A001214268
:101970000F4A00B503460020C2F8A001062000F07F
:10198000FFF8C2F8A031092000F0FAF8D2F82001DF
:1019900008B1012300E000232D2000F0F1F8012020
:1019A000C2F8A0010A2000F0EBF8184600BD0000C4
:1019B0000000214200B5012000F0E2F80B4A0020AF
:1019C00010604FF4F07000F0DBF80120106046204A
:1019D00000F0D6F852F8800C30B100224FF4CD70F0
:1019E00000F0CEF8104600BD0122F7E7AC0121421D
:1019F0000F4A00B503460020C2F8AC01062000F0F3
:101A0000BFF8C2F8AC31092000F0BAF8D2F82C01C6
:101A100008B1012300E000232D2000F0B1F80120DF
:101A2000C2F8AC010A2000F0ABF8184600BD000077
:101A30000000214200B5012000F0A2F80B4A00206E
:101A400010604FF4F07000F09BF801201060462009
:101A500000F096F852F8800C30B100224FF4CD70AF
:101A600000F08EF8104600BD0122F7E7BC012142CC
:101A70000F4A00B503460020C2F8BC01062000F062
:101A80007FF8C2F8BC31092000F07AF8D2F83C01A6
:101A900008B1012300E000232D2000F071F801209F
:101AA000C2F8BC010A2000F06BF8184600BD000027
:101AB000000021420D48816941F0010181610C491A
:101AC0004A6822F0E06242F000724A60816941F0A7
:101AD0000801816107490120086007490868074A31
:101AE0001040074A10430860704700000010024091
:101AF000000001408C812142000C0140FF0F00FFDB
:101B00000030340070B508220025154C034601262C
:101B1000642000F035F8180602D5C4F8946101E09D
:101B2000C4F89451642000F02BF8C4F88C51642060
:101B300000F026F85806D4F81011000E11B140F04C
:101B4000010301E000F0FE03642000F019F8C4F87E
:101B50008C61521E12F0FF02DAD1184670BD0000EF
:101B60000080214200B5024640F2E73302E0184609
:101B700000F006F81000A2F1010292B2F7D100BD08
:101B800013E000BF00BF00BF00BF00BF00BF00BF29
:101B900000BF00BF00BF00BF00BF00BF00BF00BF4D
:101BA00000BF00BF00BF00BF00BF401EE9D27047AA
:101BB00070B5064D00242878012802D0062420465E
:101BC00070BD2869804700202870F8E720000020B9
:101BD00070B50C460988002505292FD1417840F2BF
:101BE000CF760A0281781143C278491C1302027928
:101BF00089B21A43531EB34220D20023238001230B
:101C000000F8013B2688761C2680560703D003EB9C
:101C1000D203DEB201E0C2F3C70600F8016B2388ED
:101C20005B1C2380002300F0BBFA18B100F092FC8B
:101C3000054604E020883044208000E00325284643
:101C400070BD70B50C460988002505292FD1417853
:101C500040F2CF760A0281781143C278491C130200
:101C6000027989B21A43531EB34220D20023238043
:101C7000022300F8013B23885B1C2380530704D018
:101C8000012303EBD203DEB201E0C2F3C70600F882
:101C9000016B23885B1C238000F0BCFA18B100F0B4
:101CA00059FC054604E020883044208000E00325EC
:101CB000284670BD70B50C4609880026052924D138
:101CC000417805790A0281781143491C6A1E89B25C
:101CD0007C2A1AD800222280032202702288002344
:101CE000521C22806A0042702288801C521C228072
:101CF0002A4600F0B5FA18B100F02CFC064605E0C3
:101D0000208800EB4500208000E00326304670BDAF
:101D100070B50C4609880026052926D14178057939
:101D20000A0281781143C278491C45EA02256A1EDD
:101D300089B27C2A19D200222280042202702288D1
:101D4000521C22806A0042702288801C521C228011
:101D50002A4600F0BFFA18B100F0FCFB064605E089
:101D6000208800EB4500208000E00326304670BD4F
:101D70002DE9F0410446088800270D460A2841D382
:101D8000607826790102A078227A0843401C1FFA65
:101D900080F8E07846EA00266079731E0102A07997
:101DA0000843401C81B2E0797C2B42EA0022607A31
:101DB00027D832B3792A24D8B0EB420F21D101239E
:101DC00004F10A0000F04CFA90B900212980172193
:101DD00021702988A01C491C298071006170298804
:101DE0000023491C29803246414600F039FA18B1D7
:101DF00000F0B0FB074605E0288800EB460028808D
:101E000000E003273846BDE8F081000070B5064CBD
:101E10000D4606492288401CFEF726FA2088401C01
:101E20002880002070BD0000CC0000208001002030
:101E300038B50988002405290BD141780A02817838
:101E40001143491C027989B21AB9C278FF2A03D01A
:101E500012B10324204638BD00228DF80120C0783D
:101E6000FF280CD08DF8002001231A46684600F0A8
:101E700097F90028EED000F06DFB0446EAE7012058
:101E80008DF80000F0E710B509880024052902D07C
:101E90000324204610BD417801230A028178C01C2A
:101EA0001143491C89B21A4600F0DAF90028F0D033
:101EB00000F050FB0446ECE72DE9F0410D4609889F
:101EC0000024052926D9417843790A0281781143F3
:101ED000491C8EB2C178027942EA0122510704D02E
:101EE000012101EBD201C9B201E0C2F3C701571EC3
:101EF000B7F5F66F0ED299420CD101233146801D01
:101F000000F04EF918B100F025FB044603E005206F
:101F1000288000E003242046BDE8F08170B50D461E
:101F20000988002406291DD341780A0281781143CB
:101F3000C278491C1302027989B21A434379561EAA
:101F4000772E0FD85606360E9E420BD10123801DE8
:101F500000F086F918B100F0FDFA044603E0052010
:101F6000288000E00324204670BD00002DE9F041E8
:101F70001D46069B1746064629B1F72903D8134C80
:101F8000084621710EB102251BE01149216111495A
:101F900061611149E1601149A1610021E1611049CC
:101FA0002162104961621049A1622A46394600F057
:101FB00075F8050005D100F055FB28B166710120C8
:101FC00020702846BDE8F0810325FAE720000020B4
:101FD000712100088D21000819210008D520000872
:101FE000B1270008392800081128000838B52A4C04
:101FF000207808B1062038BD684600F025FBE8B31C
:102000009DF80000D0B3012802D0022842D10FE091
:10201000214AA369921D911CC81F984770BB607824
:102020002179884200D048BB022000F023FB31E038
:10203000A0680121184B0278A270E17000212C33B6
:1020400013F8315065B1954207D103EBC1014A68DD
:102050001149891D9047E07002E0491C1029EFDB0F
:10206000607858B1E07880B10021E180A17841F03A
:102070008002A1680A70E288521C00E00AE092B275
:10208000E2808854E088401CE080D4E90213E288B2
:1020900020799847002038BD2000002070B51546F3
:1020A000084600240822294600F0FAFA60B1B5F586
:1020B000964F01D9232003E005496800B1FBF0F0F9
:1020C00080B200F04DFB00B90324204670BD000033
:1020D000A07F17002DE9F0410D4C07461646A08859
:1020E00088460025042804D3A1880A4800F046FA4F
:1020F00018B105252846BDE8F081064800783870FB
:10210000A088C01E30800348401CC8F80000F1E7DA
:10211000D0000020A001002070B5134C034600251C
:102120006078012802D00525284670BD491E012689
:10213000A160084666800B706188114461806188E7
:1021400000F01CFA6188094A5318491C6180187014
:10215000010A60880244401C6080117026700121D1
:10216000002000F023FADFE7D0000020A0010020CB
:10217000054910B5002048700146012000F016FA0C
:10218000BDE8104000F048BAD000002010B5002192
:10219000084600F00BFABDE8104000F025BA000038
:1021A0002DE9F0410546002714B261B388182928AB
:1021B00029D8491E8EB293B1012B25D120E0082CDD
:1021C00001DD082000E02046C2B23146104800F090
:1021D0005BFB083C083605F8010B24B2B6B2002CB4
:1021E000EDDC11E015F8013B082C01DD082000E0D2
:1021F0002046C2B23146064800F057FB083C24B2E4
:10220000002CEFDC00E001273846BDE8F08100003B
:10221000E30000202DE9F0410646002714B2C1B1C9
:102220008818292815D8491E8DB20FE0082C01DD29
:10223000082000E02046C2B22946084800F024FBEE
:10224000083C083506F8010B24B2ADB2002CEDDCD9
:1022500000E001273846BDE8F0810000DE000020E4
:1022600070B5002581B38C18292C26D8491E184C2E
:1022700009B27BB1012B28D11CE000BF34F811302A
:102280001B0A037014F811304370491C801C521E45
:1022900009B292B2002AF1D117E003781B0224F8A8
:1022A00011304678801C334324F81130491C521EEB
:1022B00009B292B2002AF0D107E0B1F57A7F03D9D2
:1022C00040F2D170844200D90125284670BD00003B
:1022D000F002002030B50023A9B18C18292C12D8A7
:1022E000491E09B2094C0BE034F811502D0A057053
:1022F00014F811504570491C801C521E09B292B24C
:10230000002AF1D100E00123184630BDA0020020D0
:102310000148C08870470000E8000020014880891B
:102320007047000040030020064810B5408900F0C7
:10233000E0FB6FF0030201F046F9BDE8104000F049
:10234000C9BA0000A002002010B50220FEF700FF6D
:10235000BDE81040FFF750BA10B50320FEF7F8FEB5
:10236000BDE81040FFF748BA2DE9F0410026A0F57E
:102370000001B1F1FE4F22D34FF07F42B2EB400F8C
:1023800004D2BDE8F041012101F04BB9B0F1FF4F9B
:1023900008BFBDE8F081B0F1004F08D90120FDF77A
:1023A000B0FFBDE8F0410021084600F08BBE30F0E0
:1023B00000415ED06FF01606172101F032F900F5EA
:1023C00000226FF07E0101EBE251C2F30254771854
:1023D0004FF07E52A0EBC15602EB045557EA0400C1
:1023E00050D02946304600F005FE8046294630464A
:1023F00001F042F8414600F065FE0546014600F056
:102400006FFF8046334900F06BFF334900F0F2FD67
:1024100006464146284600F063FF314600F060FF63
:102420000646384600F030FF07462C4900F058FFBA
:102430002B49794451F8241000F0DCFD314600F0BE
:10244000D9FD06460121284601F0EBF8314600F09F
:10245000D1FD05463846234900F042FF2249794420
:1024600051F8241000F0C6FD2946BDE8F04100F007
:10247000C1BD0220FDF745FFBDE8F04100211B482A
:1024800000F020BE4FF07E51304600F0F5FF0546CB
:10249000174900F025FF174900F0ACFD294600F070
:1024A0001FFF154900F0A6FD294600F019FF6FF047
:1024B000824100F09FFD04462946084600F010FFC7
:1024C000214600F00DFF01462846BDE8F04100F02E
:1024D00091BD000066F1CC3EAAAA2A3FF4FD053862
:1024E000C21500000070313F76150000000080BF6B
:1024F00021ED423E0A1180BEC1ABAA3EFDF776FF38
:102500000021104A104C084622F8110024F811004E
:10251000491C89B22829F7D30C4B0D4A0021585485
:102520005054491C89B20529F9D3FEF7FFFB01205D
:10253000FEF758FC2088401C2080FFF7DDF8FFF7ED
:102540001BF9F7E7F0020020A0020020E3000020C2
:10255000DE000020002804D0012803D0072803D083
:1025600004207047022070470620704700F0D2BB5D
:10257000014A5060117070474003002070B50A4D49
:10258000FF231A4605F5807606E000BF10F8014BE0
:1025900054402A5D5A40335D0C00A1F1010189B21B
:1025A000F4D142EA032070BD9E36000810B50D4CF0
:1025B0000028208802D040F0200001E020F0200018
:1025C000208029B1FEF708FC208840F0800006E05A
:1025D000208820F080002080208840F0400020806B
:1025E00010BD00000C3801400A48018821F00101AB
:1025F0000180084900202431088006480C300188F9
:1026000021F001010180001D018821F001010180FC
:1026100070470000000800400A48018821F00101CD
:102620000180001F018841F001010180054900205F
:102630001431088003481038018841F001010180FD
:1026400070470000100800400549024600204B7802
:10265000002B04D0087810700020487001207047CB
:10266000DC00002002490020487001207047000073
:10267000DC000020044901224A7008700349100759
:102680000860104670470000DC00002004ED00E008
:102690000249098801700120704700000438014098
:1026A00070B528480E461C468169154641F48041A4
:1026B0008161816941F0040181612348016821F44D
:1026C0007F6141F49E610160FEF784FB1F48002199
:1026D0000180021D1180121D11800C2101801C49F6
:1026E000021F0968B1FBF6F11180072D02D0082DF9
:1026F00008D103E0018821F4805102E0018841F40F
:102700008051018024B1012C06D0022C09D111E0A6
:10271000018821F4806103E0018841F400710CE03C
:102720000180018841F4005101802520FEF7B0FBB3
:10273000012070BD018821F400710180018841F4FD
:102740008061EDE700100240040801400C380140B0
:10275000040000200149088001207047043801402E
:10276000104910B5CA6942F00402CA610E4900223C
:102770000A800E4944F620630968B1FBF3F10A4B65
:10278000491E28331980191D08800749012014317A
:10279000088005480C3002801E20FEF779FB0120DE
:1027A00010BD00000010024000080040040000209E
:1027B00038B500246846FFF76BFF1349487830B1FD
:1027C000124A012807D0022810D0032801D1FFF7B0
:1027D00023FF204638BD002088809DF8003088887F
:1027E0000244401C8880137002200BE08888FF2878
:1027F00007D89DF8003088880244401C88801370F8
:10280000E5E703204870E2E7D0000020A0010020A7
:1028100070B5084D0024687810B1022803D101205A
:10282000FFF728FF0446FFF7DFFE0120687020460F
:1028300070BD0000D000002070B5124C002520783B
:1028400010B101281CD104E000210120FFF7AEFEE9
:1028500016E0608850B1A0680078FFF77BFFA068A1
:10286000401CA0606088401E608009E00320FFF7E4
:1028700001FF054600210120FFF798FE002020708F
:10288000284670BDD000002010B5CB085C4201EB9B
:10289000C40401219140C25C1844491E407842EAB8
:1028A0000020E0400840C0B210BD70B5CC086542C1
:1028B00001EBC505AB4001219140491EA940051916
:1028C000025D6E7842EA06228A431A430255100AD4
:1028D000687070BD21F00042A2F16052B2F5801F15
:1028E00001F0004328BFD2F17F6C0BD95FEA001CD6
:1028F00043EAC20242EB507018BF704728BF20F075
:1029000001007047B2F5801FBCBF184670474FEA00
:10291000410C1CF5001F02D2084600F0A8BD70B59E
:1029200000F0A4F900000089FFF7F6BF4FF0004067
:10293000A0F580007047000010B591EA030F48BF72
:1029400083F0004300F14882841A71EB030C05D236
:10295000121943EB0C03001B61EB0C01DFF824E1BF
:102960004FEA1154A4EB135C1EEA430F18BF9EEA12
:10297000445F73D023EA0E03DCF1200E21EA0451F8
:1029800043F4801332D322FA0CFE10EB0E0023FA2C
:102990000CFE41EB0E01CCF1200E03FA0EFE10EB03
:1029A0000E0051F10001B1F5801FCCF1200E32D2A2
:1029B00001EB045112FA0EF2BDE8104058BF704707
:1029C000401C38BF5FEA420218BF7047002814BF9E
:1029D00020F0010041F100014FEA410313F5001F0F
:1029E00038BF7047A1F1C04100F08EB9012A43EB16
:1029F0000302ACF1200CDCF11F0E32BF4FF0000ED1
:102A000023FA0CF310EB030041EB0451B4EB115F1C
:102A1000D0D0A1EB045101F5801149085FEA3000E4
:102A200001EB04510ED350F1000038BF12FA0EFE34
:102A300008D1BDE81040C9E7401C38BF5FEA420238
:102A4000CAD1C3E7BDE810404FEA410313F5001FA8
:102A500038BF7047A1F1C04100F056B99EEA445F0B
:102A600008D011EA5E0FBDE8104004BF01F000413C
:102A700000207047BDE8104070B500F0F7F800BFC7
:102A800064FBBE3E0000E0FF02494FF0000000F092
:102A900068BD00BF0000F87F4FEA1153A3F58063C3
:102AA000D3F11E03A8BFD3F1200C08DB4FF0004286
:102AB00042EAC12252EA505232FA03F07047094208
:102AC0000BD4102BC4BF0020704703F5787CBCF1F9
:102AD000FF3F05D04FF0FF3070474FF000007047C8
:102AE00070B500F0C3F800BF499224800020704701
:102AF000F0E7B0FA80F310FA03F10AD0C3F11D0336
:102B000003F580634FEA41504FEA035202EBD121B3
:102B100070474FF000007047DFF848C170B51CEAFD
:102B2000111E1EBF1CEA13159EEA0C0F95EA0C0F2E
:102B300000F06F8081EA030423EA4C134EEAD47E4E
:102B400021EA4C1141F4801143F48013AE44A1FBFF
:102B5000024CA0FB0365AEF17F7E361955EB0C05E8
:102B6000A1FB034C4CF10003A0FB021C16EB0C066E
:102B7000654153F10003094218BF46F0010613F402
:102B8000007F0BD14FEA03314FEA0530340341EAAD
:102B9000155140EA16506FF003020AE04FEAC321D4
:102BA0004FEAC520F40241EA555140EA56506FF011
:102BB000020202EB2E4201EB025585EACE710AD0E9
:102BC0005FEA440C18BF24F0004450F1000041F1CA
:102BD000000120EAD47040F2FE7C624500D270BD54
:102BE000A84214BF4FF080444FF04044002E08BF6D
:102BF0000024BEF1806FA8BFA1F1C041BDE87040C4
:102C000080F282804FF0000001F1C04101F00041EC
:102C100070479EEA0C0F0CEA131518BF95EA0C0FCB
:102C200006D04FF0000081EA030E0EF0004170BDA7
:102C300000F01CF88900013E00F007B800F009B868
:102C40004FEA430C5FEA5C5C08D081EA030100F0C4
:102C50005BB84FEA410C5FEA5C5CF6D14FF00000D4
:102C6000014970470000FF070000F87F0EF1020ED7
:102C70002EF0030E5EF8046B364205D4012A43EBB6
:102C8000030515F5001F12D8012841EB010C1CF5B6
:102C9000001F0CD80ED14FEAD17C15F5001F0CEBAC
:102CA0004C0C0CF1020C08BF4CEBD37C04E04FF051
:102CB000080C01E04FEAD37C0CEB4C0526FA05F634
:102CC00006F00706B6F1040C06D20EEB860CBDE842
:102CD00070404CF0010C6047DFE80CF0090B020279
:102CE0004FF000414FF00000A1F5002170BD1946E2
:102CF0001046012851EB010418BFD4F5001484BF1D
:102D0000002001F0004170BD0808A0F500114FEA55
:102D1000310170475FEA410C5FEA5C5CACF58063AF
:102D20005B1C39D4D3F1340240F34580B2F1200367
:102D300014DA4FF0010C0CFA02FCACF10103034071
:102D4000B3EB5C0220EA030008BF10EA0C0F98BF47
:102D5000704710EB0C0041F1000170470AD0C3F13D
:102D6000200201FA02FC012821FA03F101FA03F121
:102D70004CF100004FF0010C0CFA03FCACF1010324
:102D8000B0F1004F21EA030108BF11EA0C0F4FF028
:102D9000000088BF61447047B3F1FF3F28BF50EA8D
:102DA000C12C01F000414FF0000084BF41F07C5184
:102DB00041F470017047B3F5806FB8BF704770B5CC
:102DC000FFF754FF40DBB6BE10B591EA030F48BFD2
:102DD00083F000433FF5B8AD841A71EB030C07D2C2
:102DE00012198CF0004C43EB0C03001B61EB0C013F
:102DF000DFF8A4E14FEA1154A4EB135C1EEA430F81
:102E000018BF9EEA445F00F0B08023EA6E0352428E
:102E100021EA0451C3EB6E0338BF5B1EDCF1200EC8
:102E200025D322FA0CFE10EB0E0043FA0CFE41EB08
:102E30000E01CCF1200E03FA0EFE10EB0E0051F144
:102E40000001CCF1200E29D412FA0EF201EB04514C
:102E5000BDE8104058BF7047401C1CBFB2F1004F86
:102E6000704700280CBF491C20F00100704712EB8E
:102E7000020E43EB030218BF4FF0010E4EEA42026E
:102E8000ACF1200CDCF11E0E54D943FA0CFE10EB11
:102E90000E0051F1FF31CCF11E0ED5D50EF1010E11
:102EA00012FA0EFE404141EB010101EB445C5FEA86
:102EB0005C5C10D910EBDE7001EB045138BFBEF141
:102EC000004FBDE8104018BF704700280CBF491CD8
:102ED00020F00100704730D24FEAD42C11F50011D8
:102EE00024F400641BD0B1FA81F20B3AA41AA41E98
:102EF000D2F12003914030FA03F31943904001EBE3
:102F0000CC71002C01EB0451BDE81040A8BF704704
:102F100001F1C0414FF0000001F000417047B0FAEC
:102F200080F310FA03F100D110BDE41A173C4805F4
:102F3000C90AE4E701EB045110BD491001EB04514B
:102F4000BDE810404FEA300002E04FF0000170474A
:102F50004A0008BF0042F8D0B2F5001F28BF7047F2
:102F600001F000414FF0000070479EEA445F07D037
:102F700011EA5E0FBDE8104004BF00210020704739
:102F8000BDE8104070B5FFF771FE00BF40DFF63EB0
:102F900083F00041104670470000E0FF43004FEA15
:102FA000D30C4FEA3C0C43401FBF40070CF160516B
:102FB00013F0FE4F70471CF0006F03D100200CF09F
:102FC000004170470CF0004343EA507010B540EAEE
:102FD000CC0000F006FA00BF000000924FEA0001AA
:102FE000FFF792BE4FF000414FF00000A1F5002125
:102FF0007047000090EA010F48BF81F0004100F1E6
:103000004282421A3CBF801A89184FEAD0524FF0D0
:103010007F4C1CEA410FA2EBD15318BF9CEA026F10
:1030200000F03B804FF0004C4CEA00204CEA0121BC
:1030300021FA03FC10EB0C0C1ED202F1FF325FEA06
:103040001C2040EBC25038BF70471CF07F0F4FEA86
:10305000400C18BFBCF17F4F38BF7047C3F120034D
:10306000994008BF20F00100BCF17F4F38BF704786
:10307000A0F1C04000F0FBB94FEA3C00000A40EB71
:10308000C25028BF1CF0FF0F4FEA400CE6D018BF1B
:10309000BCF17F4F38BF7047EAE79CEA026F05D06A
:1030A00010EA5C0F08BF00F00040704710B500F058
:1030B00098F900BF64FBBE3E014800F052BA00BF61
:1030C0000000C07F4FF47F0C1CEAD0121EBF1CEA28
:1030D000D11392EA0C0F93EA0C0F00F0858090EA6E
:1030E000010F48BF42F4807240F4000C41F400002C
:1030F0002CF07F4120F07F4000B58142A2EB03021B
:103100000FF2081CACEB504EC0F100009EF800E03E
:103110004FEA4E0E00FB0EFC38BF49004FEA2C1C54
:1031200002F5FA020CFB0EF34FEACE1E4FEA112C09
:103130004FEAC1210EEB635E42EB22420EFB0CFC18
:103140004FEA1C5300FB03114FEA112C4FEA0131E7
:103150000EFB0CFC4FEADC4C00FB0C11C14228BFFB
:1031600009184CEB03335DF804EB10EB410143EB22
:10317000C250B2F57C0F38BF704729D512F0F00F5E
:103180001CBF00F1C04000F0004070470081828306
:103190008485868788898B8C8D8E8F919293959666
:1031A00097999A9C9D9FA0A2A3A5A7A8AAACAEB0F0
:1031B000B2B3B5B7B9BCBEC0C2C5C7C9CCCED1D4F5
:1031C000D7D9DCDFE2E6E9ECF0F3F7FAFE00000025
:1031D0004FEA400C0CF1807CBCF17E4F28BF704759
:1031E000B0F1C04000F043B990EA010F0CEAD113EE
:1031F00048BF42F48072624538BF634507D213F47A
:103200007F0F16D080EA010000F00040704710B533
:1032100000F0E7F8097EFC3E00F005B880EA010006
:1032200000F00040704780EA010000F0004000F02C
:103230001EB912F47F0F04BF0248704780EA0100F4
:1032400000F015B90000C07FC10DD1F19E0206DB70
:103250004FEA002343F0004323FA02F07047004294
:1032600007D54FEA4001B1F1FE4F02D24FF0000006
:10327000704710B500F0B5F84992248000207047DF
:103280006FEA20007047000010F0004148BF404244
:10329000B0FA80F310FA03F2C3F19D030BD051EAA8
:1032A000C35101EB1220530638BF704700F10100F3
:1032B00008BF20F001007047B0FA80F310FA03F263
:1032C000C3F19D030AD0D90501EB1220530638BF84
:1032D000704700F1010008BF20F0010070470000B6
:1032E0004FF47F0C1CEAD0121EBF1CEAD11392EAE5
:1032F0000C0F93EA0C0F00F0478090EA010F48BFD3
:1033000042F480724FF0004C4CEA00204CEA01215C
:1033100002EB0302A0FB0113A2F50002002918BF73
:1033200043F001035B0028BF4FEA330342EB224224
:103330005FEA132C4CEBC2502EBFBCEB436FB2F5CF
:103340007C0F70474FEA036CBCF1004F08BF20F0C0
:103350000100B2F57C0F38BF70470BD582F0FF0239
:1033600012F5803FC8BF704700F1C040D8BF00F0E1
:103370000040704700F5000C5FEA4C0C48BF7047F6
:10338000B0F1C04000F073B890EA010F0CEAD1131D
:1033900048BF42F48072624538BF634504D280EA78
:1033A000010000F00040704710B500F01AF800BFAF
:1033B0008900013E00F007B800F009B85FEA410C4F
:1033C0005FEA1C6C08D080EA010000F050B85FEAA8
:1033D000400C5FEA1C6CF6D14FF00040A0F5800075
:1033E00070470EF1020E2EF0030E5EF8044B2442DD
:1033F00004D44FEA4102B2F17F4F11D84FEA4003A3
:10340000B3F17F4F0CD80ED14FEAD07CB2F17F4F91
:103410000CEB4C0C0CF1020C08BF4CEBD17C04E023
:103420004FF0080C01E04FEAD17C0CEB4C0324FA7E
:1034300003F404F00704B4F1040C06D20EEB840C80
:10344000BDE810404CF0010C6047DFE80CF00708C5
:1034500002024FF00040A0F5800010BD0846420077
:1034600018BFD2F1807288BF00F0004010BDFF216C
:1034700041EAD050C005704790EA010F48BF81F083
:1034800000413FF5BEAD421A04D882F00042A0EBE5
:10349000020011444FEAD0524FF07F4C1CEA410F1A
:1034A000A2EBD15318BF9CEA026F4AD04FF0004CF8
:1034B0004CEA00204CEA012121FA03FCB0EB0C0C91
:1034C0000FD412F0FE0F36D05FEA4C001DD500126B
:1034D00040EBC25038BF70471CF03F0F18BF704719
:1034E0000BE0A2F101025FEA1C2040EBC25038BFA2
:1034F00070471CF07F0F18BF7047C3F1200399403D
:1035000014BF401E20F00100704780084FEA1223CC
:1035100008BF7047B0FA80FCA2EB0C02CCF1280C7B
:1035200060FA0CF093EA122F04BF00EBC250704710
:103530004FEAC3707047130A5FEADC1008BF704798
:10354000F6E79CEA026F04D010EA5C0F08BF002087
:10355000704710B5FFF745FF40DFF63E81F00040B1
:1035600070470CF00F03092B08BF082000F07F8084
:103570000A2B0BD0082B18BF704708BF1CF0400F58
:103580000AD04FF000004FF0000170471CF0400FD0
:1035900018BF4FF0004070471CF0100F08D020F00B
:1035A000704300F07F4242EAD3014FEA4370704714
:1035B00000F0604021F07F4242EA000201F07F40CB
:1035C00040EA727070474FF0FF0C4CF4E06C1CEA5C
:1035D00011531CBF9CEA030C9445C2BFDA4201EBB5
:1035E00002517047002B0DD0BCF1000F0FD0002A04
:1035F00001F00041A4BF41F0E04141F07F614FF094
:103600000000704701F000414FF00000704750EAA1
:1036100001334FF09B0C18BF4CF0806C7FF434AA40
:1036200070474FF0FF0212EAD0521CBF92F0FF0326
:103630008B42C2BFD14200EBC1507047002A0AD072
:10364000002B0BD0002900F00040A4BF40F0FE404A
:1036500040F40000704700F00040704743024FF014
:103660000B0C18BF4CF0806C7FF426AD70471CF437
:10367000801F11D01CF4E02F03D06FEACC31490039
:1036800070474FF04050EFF3008222F0704242EA60
:10369000000282F3008870474FF00000704700C1BD
:1036A000814001C0804101C0804100C1814001C012
:1036B000804100C1814000C1814001C0804101C002
:1036C000804100C1814000C1814001C0804100C1F2
:1036D000814001C0804101C0804100C1814001C0E2
:1036E000804100C1814000C1814001C0804100C1D2
:1036F000814001C0804101C0804100C1814000C1C2
:10370000814001C0804101C0804100C1814001C0B1
:10371000804100C1814000C1814001C0804101C0A1
:10372000804100C1814000C1814001C0804100C191
:10373000814001C0804101C0804100C1814000C181
:10374000814001C0804101C0804100C1814001C071
:10375000804100C1814000C1814001C0804100C161
:10376000814001C0804101C0804100C1814001C051
:10377000804100C1814000C1814001C0804101C041
:10378000804100C1814000C1814001C0804100C131
:10379000814001C0804101C0804100C1814000C022
:1037A000C101C30302C2C60607C705C5C404CC0CC9
:1037B0000DCD0FCFCE0E0ACACB0BC90908C8D81839
:1037C00019D91BDBDA1A1EDEDF1FDD1D1CDC14D449
:1037D000D515D71716D6D21213D311D1D010F03079
:1037E00031F133F3F23236F6F737F53534F43CFC89
:1037F000FD3DFF3F3EFEFA3A3BFB39F9F83828E839
:10380000E929EB2B2AEAEE2E2FEF2DEDEC2CE42408
:1038100025E527E7E62622E2E323E12120E0A06078
:1038200061A163A3A26266A6A767A56564A46CAC48
:10383000AD6DAF6F6EAEAA6A6BAB69A9A86878B8B8
:10384000B979BB7B7ABABE7E7FBF7DBDBC7CB474C8
:1038500075B577B7B67672B2B373B17170B0509078
:1038600091519353529296565797559594549C5C08
:103870005D9D5F9F9E5E5A9A9B5B995958988848B8
:1038800049894B8B8A4A4E8E8F4F8D4D4C8C448488
:1038900085458747468682424383418180402A226C
:1038A0002A222A222A222A22C90E0008090F0008E9
:1038B000150F0008210F00085D0F0008690F0008B0
:1038C000750F0008B50F0008C10F0008CD0F0008E4
:1038D0000D10000819100008005EBCE2613FDD8396
:1038E000C29C7E20A3FD1F419DC3217FFCA2401EE0
:1038F0005F01E3BD3E6082DC237D9FC1421CFEA0D0
:10390000E1BF5D0380DE3C62BEE0025CDF81633DBF
:103910007C22C09E1D43A1FF4618FAA427799BC5AF
:1039200084DA3866E5BB5907DB856739BAE406589F
:103930001947A5FB7826C49A653BD987045AB8E68F
:10394000A7F91B45C6987A24F8A6441A99C7257B7F
:103950003A6486D85B05E7B98CD2306EEDB3510F6F
:103960004E10F2AC2F7193CD114FADF3702ECC925F
:10397000D38D6F31B2EC0E50AFF1134DCE90722C4F
:103980006D33D18F0C52B0EE326C8ED0530DEFB13F
:10399000F0AE4C1291CF2D73CA947628ABF517492F
:1039A0000856B4EA6937D58B5709EBB536688AD41F
:1039B00095CB2977F4AA4816E9B7550B88D6346A0F
:1039C0002B7597C94A14F6A8742AC896154BA9F7FF
:1039D000B6E80A54D7896B35000000000030F13D8D
:1039E0000070643E0000A33E0090CF3E0090F83E81
:1039F00000400F3F00E0203F0000000015B7833774
:103A0000CDE37B380EE1C53860F69138AF5F0F38F3
:103A1000E1BC3E3823F44739383A00080000002062
:103A2000300100005C0100088C3A000830010020E1
:103A3000E00A0000B8010008510410366E01000AC7
:103A40002B0102030406070809023211130D1E2B75
:103A500008040C121D33080313B51C330810131D82
:103A60001F3308061A872032171A7120297513D1BF
:103A70001B3308051A3118320F1AB90829741A4372
:0C3A800038014DFB0101E401340000009E
:0400000508000121CD
:00000001FF
